:020000040800F2
:100000000028002031160008A1140008A7140008D9
:10001000AD140008B3140008B91400080000000073
:10002000000000000000000000000000BF140008F5
:10003000CB14000800000000D7140008E3140008E7
:100040007916000879160008791600087916000854
:100050007916000879160008791600087916000844
:100060007916000879160008791600087916000834
:100070007916000879160008791600087916000824
:100080007916000879160008791600087916000814
:100090007916000879160008791600087916000804
:1000A00079160008791600087916000879160008F4
:1000B000F114000879160008000000007916000805
:1000C0007916000800000000000000007916000802
:1000D00000000000791600087916000800000000F2
:1000E000791600087916000879160008000000004B
:1000F0000000000000000000000000000000000000
:0C01000000000000000000005FF808F1A3
:10010C0010B5054C237833B9044B13B10448AFF345
:10011C0000800123237010BD180000200000000097
:10012C00A82C000808B5034B1BB103490348AFF3D7
:10013C00008008BD000000001C000020A82C000856
:10014C0080B586B000AF7860394A07F10C0307CA56
:10015C0003C31A807B68002B02DB7B68092B01DD53
:10016C0000237B6007F10C027B6813441B78FB7542
:10017C00FB7D03F00103002B0CBF01230023DBB23A
:10018C001A4601212B4801F074FDFB7D03F002039C
:10019C00002B0CBF01230023DBB21A460221254899
:1001AC0001F067FDFB7D03F00403002B0CBF012362
:1001BC000023DBB21A4604211E4801F05AFDFB7DD8
:1001CC0003F00803002B0CBF01230023DBB21A46FB
:1001DC000821184801F04DFDFB7D03F01003002BA6
:1001EC000CBF01230023DBB21A461021114801F089
:1001FC0040FDFB7D03F02003002B0CBF01230023EB
:10020C00DBB21A4620210B4801F033FDFB7D03F0D5
:10021C004003002B0CBF01230023DBB21A46402104
:10022C00044801F026FD00BF1837BD4680BD00BF55
:10023C00C02C0008000C014080B582B000AF786083
:10024C0001224FF40071514801F013FD01224FF4CB
:10025C0080614E4801F00DFD01224FF400614B48C6
:10026C0001F007FD01224FF48051484801F001FDD7
:10027C007B68013B032B00F2838001A252F823F030
:10028C009D020008D902000815030008510300085C
:10029C003F4B1B681846FFF753FF00224FF40071C9
:1002AC003A4801F0E6FC01224FF48061374801F036
:1002BC00E0FC01224FF40061344801F0DAFC012229
:1002CC004FF48051314801F0D4FC5AE0304B5B685C
:1002DC001846FFF735FF01224FF400712B4801F04F
:1002EC00C8FC00224FF48061284801F0C2FC0122B6
:1002FC004FF40061254801F0BCFC01224FF4805101
:10030C00224801F0B6FC3CE0214B9B681846FFF7F5
:10031C0017FF01224FF400711C4801F0AAFC0122C6
:10032C004FF48061194801F0A4FC00224FF40061E5
:10033C00164801F09EFC01224FF48051134801F045
:10034C0098FC1EE0124BDB681846FFF7F9FE012201
:10035C004FF400710D4801F08CFC01224FF48061C8
:10036C000A4801F086FC01224FF40061074801F0B5
:10037C0080FC00224FF48051044801F07AFC00E02C
:10038C0000BF00BF0837BD4680BD00BF000801405C
:10039C003C00002080B500AF0E4B1B68002B16D123
:1003AC000D4B1B681846FFF747FF0B4B1B68591C7E
:1003BC000A4B83FB01235A10CB17D21A13469B000E
:1003CC001344CA1A044B1A60024B02221A6000BF73
:1003DC0080BD00BF380000203400002067666666D0
:1003EC0080B483B000AF78607B68042B35DD7B680C
:1003FC00082B32DC6C4B1B686C4A82FB031292108C
:10040C00DB17D31A6A4A1360674B1968674B83FB77
:10041C0001239A10CB17D21A13469B0013445B008E
:10042C00CA1A634B5A60634B1B68604A82FB031207
:10043C009210DB17D31A5E4A93605E4B19685B4BC4
:10044C0083FB01239A10CB17D21A13469B0013443B
:10045C005B00CA1A564BDA60A1E07B68082B35DDCD
:10046C007B680C2B32DC544B1B68504A82FB03120A
:10047C009210DB17D31A4E4A13604F4B19684B4B33
:10048C0083FB01239A10CB17D21A13469B001344FB
:10049C005B00CA1A464B5A60484B1B68434A82FBA6
:1004AC0003129210DB17D31A414A9360434B19681D
:1004BC003E4B83FB01239A10CB17D21A13469B0099
:1004CC0013445B00CA1A3A4BDA6068E07B68022B73
:1004DC001FD13B4B1B68354A82FB03129210DB1772
:1004EC00D31A334A1360364B1968304B83FB012304
:1004FC009A10CB17D21A13469B0013445B00CA1AEE
:10050C002B4B5A602A4B00229A60294B0222DA604C
:10051C0045E07B68032B1FD12A4B1B68234A82FBC7
:10052C0003129210DB17D31A214A1360254B19685A
:10053C001E4B83FB01239A10CB17D21A13469B0038
:10054C0013445B00CA1A1A4B5A60194B00229A606A
:10055C00174B0322DA6022E07B68042B1FD11A4B65
:10056C001B68124A82FB03129210DB17D31A104A33
:10057C001360154B19680D4B83FB01239A10CB1795
:10058C00D21A13469B0013445B00CA1A084B5A60DC
:10059C00074B00229A60064B0422DA60FFE700BF8B
:1005AC000C37BD4680BC70477400002067666666D9
:1005BC003C00002070000020C4000020BC00002083
:1005CC00B0000020AC000020C000002080B483B03C
:1005DC0000AF7860094A7B6852F82330012B06D1B2
:1005EC00064A7B68002142F82310012300E0002317
:1005FC0018460C37BD4680BC704700BF4C0000202D
:10060C0080B483B000AF7860044A7B68012142F863
:10061C00231000BF0C37BD4680BC70474C00002037
:10062C0080B582B000AF00237B608CE04A4A7B68C7
:10063C0052F8232049497B6841F82320484A7B68BB
:10064C0052F8232044497B6841F823207B68002B17
:10065C0009D14FF40051434801F0F4FA03461A460D
:10066C003F4B1A6018E07B68012B09D14FF4804195
:10067C003C4801F0E7FA03461A46394B5A600BE046
:10068C007B68022B08D14FF40041364801F0DAFAAE
:10069C0003461A46324B9A60304A7B6852F8232044
:1006AC002D497B6851F823309A4249D12A4A7B68FC
:1006BC0052F823202A497B6851F823309A423FD1C3
:1006CC00294A7B6852F8232025497B6851F823304E
:1006DC009A4217D0224A7B6852F8232022497B6821
:1006EC0041F823201E4A7B6852F82330002B27D177
:1006FC001E4A7B684FF4FA7142F823107868FFF7B2
:10070C007FFF1DE0194A7B6852F823305A1E1749A7
:10071C007B6841F82320154A7B6852F82330002B64
:10072C000ED1124A7B684FF4FA7142F823100C4A2E
:10073C007B6852F82330002B02D17868FFF760FFFA
:10074C007B6801337B607B68022B7FF76FAF00BF48
:10075C0000BF0837BD4680BD9000002084000020FB
:10076C009C000020001001407800002000000020B8
:10077C0080B500AF9E4B1B68023B062B00F28181BB
:10078C0001A252F823F000BF47090008A309000892
:10079C00210A0008B10700081108000879080008B0
:1007AC00D908000800F0AEFE924B1B68002B11D14B
:1007BC000520FFF715FEFFF7EDFD8F4B1B68013B86
:1007CC008D4A13608D4B1B68013B8C4A1360894B1F
:1007DC0064221A608A4B1B68002B08D1874B0222BB
:1007EC001A60874BC8221A60814B06221A600020BF
:1007FC00FFF7ECFE0346002B00F045817C4B0222F8
:10080C001A6040E100F0A2FE7A4B1B68002B11D15C
:10081C000620FFF7E5FDFFF7BDFD774B1B68013B9D
:10082C00754A1360754B1B68013B744A1360714B1E
:10083C0064221A60724B1B68002B0CD16E4B032286
:10084C001A606E4B05221A606D4B4FF496721A604B
:10085C00674B07221A600020FFF7B8FE0346002BF7
:10086C0000F01381624B02221A600EE100F092FE3E
:10087C00604B1B68002B11D10720FFF7B1FDFFF770
:10088C0089FD5D4B1B68013B5B4A13605B4B1B682E
:10089C00013B5A4A1360574B64221A60584B1B6831
:1008AC00002B08D1544B02221A60554BC8221A60F7
:1008BC004F4B08221A600020FFF788FE0346002BDE
:1008CC0000F0E5804A4B02221A60E0E000F086FE60
:1008DC00484B1B68002B11D10820FFF781FDFFF757
:1008EC0059FD454B1B68013B434A1360434B1B6846
:1008FC00013B424A13603F4B64221A60404B1B6819
:10090C00002B0FD13C4B05221A603C4B03221A6082
:10091C00384B00221A603A4B4FF496721A60344BE3
:10092C0005221A600020FFF751FE0346002B00F051
:10093C00B0802F4B02221A60ABE000F0BDF8012012
:10094C00FFF744FE0346002B10D02E4B1B680133DF
:10095C002C4A13602B4B1B68632B02DD294B0122A5
:10096C001A600220FFF73CFDFFF714FD0020FFF793
:10097C002DFE0346002B02D01D4B03221A600220D1
:10098C00FFF724FE0346002B00F085801D4B1B68EF
:10099C001D4A13607FE000F08FF80120FFF716FE70
:1009AC000346002B10D0194B1B680133174A1360F8
:1009BC00164B1B68632B02DD144B01221A600320BB
:1009CC00FFF70EFDFFF7E6FC0020FFF7FFFD0346E7
:1009DC00002B02D0064B04221A600220FFF7F6FD12
:1009EC000346002B59D0094B1B68094A136054E08D
:1009FC0064000020B400002074000020700000206F
:100A0C00B8000020B0000020C4000020AC00002082
:100A1C00A800002000F050F80120FFF7D7FD034696
:100A2C00002B10D01F4B1B6801331E4A13601D4B4B
:100A3C001B68632B02DD1B4B00221A600420FFF79E
:100A4C00CFFCFFF7A7FC0020FFF7C0FD0346002BEF
:100A5C000CD0154B09221A60144B00221A60144B4F
:100A6C001B68642202FB03F3124A13600220FFF797
:100A7C00ADFD0346002B12D00A4B1B680C4A1360C9
:100A8C000DE000BF0CE000BF0AE000BF08E000BFB3
:100A9C0006E000BF04E000BF02E000BF00E000BFC2
:100AAC0000BF80BDC000002064000020CC000020EE
:100ABC00BC000020D000002080B500AF104B1B689C
:100ACC00002B1AD101210F4801F0EBF808210D4839
:100ADC0001F0E7F802210B4801F0E3F81021094876
:100AEC0001F0DFF80421074801F0DBF8402105484C
:100AFC0001F0D7F8024B32221A6000BF80BD00BF54
:100B0C00C80000200008014080B400AF1C4B1B68DB
:100B1C00002B04DD1A4B1B68013B194A1360194B5F
:100B2C001B68002B04DD174B1B68013B154A136037
:100B3C00154B1B68002B04DD134B1B68013B124A41
:100B4C001360124B1B68002B04DD104B1B68013B20
:100B5C000E4A13600E4B1B68002B04DD0C4B1B68FC
:100B6C00013B0B4A13600B4B1B68002B04DD094B3C
:100B7C001B68013B074A136000BFBD4680BC704731
:100B8C00B4000020B8000020C8000020CC000020D9
:100B9C00D00000203800002080B500AF7A4B1B68D5
:100BAC00093B032B00F2E58001A252F823F000BFB1
:100BBC00CD0B00082F0C0008A70C00080F0D000827
:100BCC0000F0A0FC714B1B68002B11D10920FFF722
:100BDC0007FCFFF7DFFB6E4B1B68013B6C4A136095
:100BEC006C4B1B68013B6B4A1360684B64221A60A8
:100BFC00694B1B68002B09D1684B1B68642202FBF4
:100C0C0003F3654A1360604B0A221A600020FFF759
:100C1C00DDFC0346002B00F0AE805B4B02221A6019
:100C2C00A9E05F4B1B685B4A136000F08FFC574BCD
:100C3C001B68002B11D10A20FFF7D2FBFFF7AAFB90
:100C4C00534B1B68013B524A1360524B1B68013BD0
:100C5C00504A13604D4B64221A604F4B1B68002B9B
:100C6C0011D1504B1B684A4A13604F4B1B68494AC1
:100C7C001360474B1B68642202FB03F3464A136064
:100C8C00414B0B221A600020FFF7A0FC0346002BFF
:100C9C0073D03D4B02221A606FE000F07BFC3B4BA3
:100CAC001B68002B11D10B20FFF79AFBFFF772FB8F
:100CBC00374B1B68013B364A1360364B1B68013BB4
:100CCC00344A1360314B64221A60334B1B68002B7F
:100CDC000DD1334B1B682E4A1360304B1B686422BA
:100CEC0002FB03F32C4A1360274B0C221A600020E2
:100CFC00FFF76CFC0346002B41D0234B02221A60F9
:100D0C003DE000F06BFC214B1B68002B11D10C203B
:100D1C00FFF766FBFFF73EFB1D4B1B68013B1C4AB4
:100D2C0013601C4B1B68013B1A4A1360174B64225F
:100D3C001A60194B1B68002B11D11B4B1B68144AF2
:100D4C001360184B1B68134A1360114B1B68642209
:100D5C0002FB03F3104A13600B4B09221A600020AC
:100D6C00FFF734FC0346002B0BD0074B02221A6012
:100D7C0007E000BF06E000BF04E000BF02E000BFD8
:100D8C0000E000BF00BF80BD64000020CC0000204C
:100D9C00C4000020BC000020D0000020A8000020CF
:100DAC00AC000020C0000020B000002080B500AFD7
:100DBC0000F05EFC00F04EF900F042F800F0C8F8CC
:100DCC0000F07AF8144801F0B1FB144B05221A60BC
:100DDC00134B03221A60134B00221A60124B4FF470
:100DEC0096721A60114B05221A60052200211048D8
:100DFC0000F04EF905220A210E4800F049F90122B3
:100E0C0000210D4800F044F9282228210B4800F05D
:100E1C003FF900F00DFAFCE7D4000020740000202C
:100E2C0070000020B4000020B800002064000020F6
:100E3C007D070008A50B0008150B0008A10300088E
:100E4C0080B590B000AF07F1180328220021184696
:100E5C0001F01CFF3B1D00221A605A609A60DA6098
:100E6C001A610223BB610123BB621023FB620023C6
:100E7C007B6307F11803184600F02CFF0346002B88
:100E8C0001D000F0E1F80F237B600023BB6000234E
:100E9C00FB6000233B6100237B613B1D0021184656
:100EAC0001F098F90346002B01D000F0CDF800BFFB
:100EBC004037BD4680BD000080B586B000AF07F15D
:100ECC00080300221A605A609A60DA603B460022DE
:100EDC001A605A601D4B4FF080421A601B4B41F652
:100EEC003F725A60194B00229A60184B0922DA6043
:100EFC00164B00221A61154B00229A61134801F01F
:100F0C00C5FA0346002B01D000F09EF84FF4805335
:100F1C00BB6007F1080319460C4801F043FC03467B
:100F2C00002B01D000F090F800233B6000237B6085
:100F3C003B461946054801F01BFE0346002B01D029
:100F4C0000F082F800BF1837BD4680BDD4000020E9
:100F5C0080B588B000AF07F1100300221A605A6008
:100F6C009A60DA602E4B9B692D4A43F01003936113
:100F7C002B4B9B6903F01003FB60FB68284B9B69B0
:100F8C00274A43F004039361254B9B6903F0040348
:100F9C00BB60BB68224B9B69214A43F008039361F9
:100FAC001F4B9B6903F008037B607B68002241F6B2
:100FBC007F611C4800F05DFE00227F211A4800F082
:100FCC0058FE4FF460433B6100237B610123BB61FE
:100FDC0007F110031946154800F0BAFC41F67F637F
:100FEC003B6101237B610023BB610223FB6107F1A1
:100FFC00100319460B4800F0ABFC7F233B61012327
:10100C007B610023BB610223FB6107F110031946CE
:10101C00054800F09DFC00BF2037BD4680BD00BFD9
:10102C000010024000080140000C0140001001407B
:10103C0080B582B000AF786000F086F8FFF7F0FA68
:10104C0000BF0837BD4680BD80B400AF72B600BF8C
:10105C00FEE7000080B582B000AF0023FB7106E014
:10106C00FB79184600F038F9FB790133FB71FB79F9
:10107C00042BF5D9044B00221A70044B00221A7071
:10108C0000BF0837BD4680BD680000205800002016
:10109C0080B485B000AFF860B9607A60274B1B78DC
:1010AC00042B43D8254B1B781946254A0B469B002D
:1010BC000B449B001344FA681A60204B1B781946AA
:1010CC001F4A0B469B000B449B0013440433BA6825
:1010DC001A601A4B1B781946194A0B469B000B4495
:1010EC009B00134408337A681A60144B1B7819461A
:1010FC00134A0B469B000B449B0013440C330022F9
:10110C001A700E4B1A780D4B1B78194610460C4A68
:10111C000B469B000B449B00134410331860074B89
:10112C001B780133DAB2054B1A7003E0054B012230
:10113C001A7000BF1437BD4680BC70476800002091
:10114C001C0100205800002080B483B000AF0023A5
:10115C00FB715DE0FA79344913469B0013449B0004
:10116C000B441B68002B50D0FA792F4913469B0077
:10117C0013449B000B4404331B68002B32D1FA79C7
:10118C00294913469B0013449B000B440C331B78DA
:10119C00FA790133D8B2244913469B0013449B00BF
:1011AC000B440C3302461A70FA791F4913469B0004
:1011BC0013449B000B4408331B68002B25D0F97992
:1011CC00FA7919480B469B000B449B0003440833E7
:1011DC001968154813469B0013449B0003440433C1
:1011EC00196012E0FA79104913469B0013449B00D6
:1011FC000B4404331B68FA79591E0B4813469B00A9
:10120C0013449B00034404331960FB790133FB71D5
:10121C00064B1B78FA799A429CD300BF00BF0C375F
:10122C00BD4680BC704700BF1C0100206800002038
:10123C0080B582B000AF0023FB713DE0FA79244900
:10124C0013469B0013449B000B440C331B78002B60
:10125C002FD0FA791E4913469B0013449B000B4474
:10126C001B689847FA791A4913469B0013449B0054
:10127C000B440C331B78FA79013BD8B21449134652
:10128C009B0013449B000B440C3302461A70FA79F2
:10129C000F4913469B0013449B000B4408331B68F7
:1012AC00002B06D1FB79184600F016F8FB79013BB0
:1012BC00FB71FB790133FB71064B1B78FA799A426F
:1012CC00BCD300F055F800BF0837BD4680BD00BF49
:1012DC001C0100206800002080B483B000AF0346DE
:1012EC00FB71204B1B78FA799A4209D2FA791E4984
:1012FC0013469B0013449B000B441B68002B03D12B
:10130C001A4B08221A7029E0FA79174913469B00E8
:10131C0013449B000B4400221A60FA7912491346BD
:10132C009B0013449B000B44043300221A60FA798F
:10133C000D4913469B0013449B000B4408330022B9
:10134C001A60FA79084913469B0013449B000B441E
:10135C000C3300221A70054B00221A700C37BD4654
:10136C0080BC7047680000201C0100205800002041
:10137C0080B400AF184B1A78184B1B789A4216D0D1
:10138C00154B1B78C3F1FF02154BDA60124B1A7820
:10139C00124B1A70104B1B78002B04D0114B4EF6CD
:1013AC0060221A6013E00F4B00221A600FE00D4B05
:1013BC001B68002B0BD00B4B1B68013B094A1360BD
:1013CC00084B1B68002B02D1034B00221A7000BF84
:1013DC00BD4680BC704700BF580000206000002054
:1013EC00000C01405C00002080B485B000AF154BB0
:1013FC009B69144A43F001039361124B9B6903F000
:10140C000103BB60BB680F4BDB690E4A43F0805392
:10141C00D3610C4BDB6903F080537B607B680A4B18
:10142C005B68FB60FB6823F0E063FB60FB6843F0E8
:10143C008063FB60044AFB68536000BF1437BD46F1
:10144C0080BC7047001002400000014080B584B0A1
:10145C0000AF78607B681B68B3F1804F13D10C4BE5
:10146C00DB690B4A43F00103D361094BDB6903F0E1
:10147C000103FB60FB68002200211C2000F031FA04
:10148C001C2000F04AFA00BF1037BD4680BD00BFDB
:10149C000010024080B400AFFEE780B400AFFEE75E
:1014AC0080B400AFFEE780B400AFFEE780B400AFBD
:1014BC00FEE780B400AF00BFBD4680BC704780B46F
:1014CC0000AF00BFBD4680BC704780B400AF00BF0A
:1014DC00BD4680BC704780B500AF00F00FF900BF6F
:1014EC0080BD000080B500AF024801F06BF800BF72
:1014FC0080BD00BFD400002080B400AF00BFBD464B
:10150C0080BC704780B500AF012201210E4800F06D
:10151C00B0FB002202210C4800F0ABFB002204219E
:10152C00094800F0A6FB00220821074800F0A1FBA7
:10153C0000221021044800F09CFB012240210248AB
:10154C0000F097FB00BF80BD0008014080B500AFE4
:10155C00012201210E4800F08CFB002202210C48D4
:10156C0000F087FB00220421094800F082FB0022D6
:10157C000821074800F07DFB01221021044800F0EF
:10158C0078FB00224021024800F073FB00BF80BDB5
:10159C000008014080B500AF002201210E4800F088
:1015AC0068FB002202210C4800F063FB012204219D
:1015BC00094800F05EFB01220821074800F059FBA6
:1015CC0000221021044800F054FB00224021024864
:1015DC0000F04FFB00BF80BD0008014080B500AF9C
:1015EC00002201210E4800F044FB012202210C488C
:1015FC0000F03FFB00220421094800F03AFB0122D5
:10160C000821074800F035FB00221021044800F0A7
:10161C0030FB00224021024800F02BFB00BF80BDB4
:10162C0000080140FFF768FF0B480C490C4A0023E7
:10163C0002E0D458C4500433C4188C42F9D3094A7C
:10164C00094C002301E013600432A242FBD301F0E9
:10165C00F9FAFFF7ABFB70470000002018000020E0
:10166C00F82C00081800002084010020FEE7000080
:10167C0080B500AF084B1B68074A43F0100313609A
:10168C00032000F023F90F2000F008F8FFF7ACFE60
:10169C000023184680BD00BF0020024080B582B0F8
:1016AC0000AF7860124B1A68124B1B7819464FF436
:1016BC007A73B3FBF1F3B2FBF3F3184600F03BF98A
:1016CC000346002B01D001230EE07B680F2B0AD8B8
:1016DC00002279684FF0FF3000F003F9064A7B686E
:1016EC001360002300E0012318460837BD4680BD77
:1016FC000C000020140000201000002080B400AF6B
:10170C00054B1B781A46054B1B681344034A1360A0
:10171C0000BFBD4680BC7047140000208001002033
:10172C0080B400AF024B1B681846BD4680BC7047A6
:10173C008001002080B485B000AF78607B6803F036
:10174C000703FB600C4BDB68BB60BA684FF6FF030A
:10175C001340BB60FB681A02BB68134343F0BF63C2
:10176C0043F40033BB60044ABB68D36000BF14373A
:10177C00BD4680BC704700BF00ED00E080B400AFF8
:10178C00044BDB681B0A03F007031846BD4680BCFC
:10179C00704700BF00ED00E080B483B000AF03469B
:1017AC00FB7197F90730002B0BDBFB7903F01F0261
:1017BC00064997F907305B09012000FA02F241F85B
:1017CC00232000BF0C37BD4680BC704700E100E011
:1017DC0080B483B000AF03463960FB7197F90730D2
:1017EC00002B0ADB3B68DAB20C4997F9073012017F
:1017FC00D2B20B4483F800230AE03B68DAB2084902
:10180C00FB7903F00F03043B1201D2B20B441A769E
:10181C0000BF0C37BD4680BC704700BF00E100E044
:10182C0000ED00E080B489B000AFF860B9607A6078
:10183C00FB6803F00703FB61FB69C3F10703042B8F
:10184C0028BF0423BB61FB690433062B02D9FB6957
:10185C00033B00E000237B614FF0FF32BB6902FACF
:10186C0003F3DA43BB681A407B699A404FF0FF31AF
:10187C007B6901FA03F3D9437B680B401343184689
:10188C002437BD4680BC704780B582B000AF78600D
:10189C007B68013BB3F1807F01D301230FE00A4A3F
:1018AC007B68013B53600F214FF0FF30FFF790FF37
:1018BC00054B00229A60044B07221A60002318463D
:1018CC000837BD4680BD00BF10E000E080B582B097
:1018DC0000AF78607868FFF72DFF00BF0837BD4672
:1018EC0080BD80B586B000AF0346B9607A60FB73EB
:1018FC0000237B61FFF742FF78617A68B9687869E9
:10190C00FFF790FF024697F90F3011461846FFF784
:10191C005FFF00BF1837BD4680BD80B582B000AFF9
:10192C000346FB7197F907301846FFF735FF00BFE8
:10193C000837BD4680BD80B582B000AF786078684E
:10194C00FFF7A2FF034618460837BD4680BD0000CE
:10195C0080B48BB000AF7860396000237B620023C9
:10196C003B6248E101227B6A02FA03F3FB613B68AC
:10197C001B68FA691340BB61BA69FB699A4240F073
:10198C0037813B685B68A34A93425ED0A14A93427D
:10199C0075D8A14A934258D09F4A93426FD89F4A18
:1019AC00934252D09D4A934269D89D4A93424CD05F
:1019BC009B4A934263D89B4A934246D0994A93429E
:1019CC005DD8122B2AD8122B59D801A252F823F029
:1019DC00571A0008311A0008431A0008851A000823
:1019EC008B1A00088B1A00088B1A00088B1A000837
:1019FC008B1A00088B1A00088B1A00088B1A000827
:101A0C008B1A00088B1A00088B1A00088B1A000816
:101A1C008B1A0008391A00084D1A0008824A9342A2
:101A2C0013D02CE03B68DB683B6229E03B68DB6849
:101A3C0004333B6224E03B68DB6808333B621FE005
:101A4C003B68DB680C333B621AE03B689B68002BFD
:101A5C0002D104233B6213E03B689B68012B05D148
:101A6C0008233B627B68FA691A6109E008233B6230
:101A7C007B68FA695A6103E000233B6200E000BF17
:101A8C00BB69FF2B01D87B6801E07B6804337B6169
:101A9C00BB69FF2B02D87B6A9B0002E07B6A083B88
:101AAC009B003B617B691A680F213B6901FA03F3C8
:101ABC00DB431A40396A3B6901FA03F31A437B6929
:101ACC001A603B685B6803F08053002B00F0908039
:101ADC00564B9B69554A43F001039361534B9B69E9
:101AEC0003F00103BB60BB68514A7B6A9B0802335D
:101AFC0052F82330FB607B6A03F003039B000F2238
:101B0C0002FA03F3DB43FA681340FB607B68494A33
:101B1C0093420DD07B68484A934207D07B68474A72
:101B2C00934201D1022304E0032302E0012300E0ED
:101B3C0000237A6A02F0030292009340FA6813437E
:101B4C00FB603B497B6A9B080233FA6841F823200F
:101B5C003B685B6803F48013002B06D0384B9A6803
:101B6C003749BB6913438B6006E0354B9A68BB69F8
:101B7C00DB43334913408B603B685B6803F4001311
:101B8C00002B06D02E4BDA682D49BB691343CB6072
:101B9C0006E02B4BDA68BB69DB4329491340CB6069
:101BAC003B685B6803F40033002B06D0244B5A6867
:101BBC002349BB6913434B6006E0214B5A68BB6950
:101BCC00DB431F4913404B603B685B6803F4803375
:101BDC00002B06D01A4B1A681949BB6913430B60CA
:101BEC0006E0174B1A68BB69DB43154913400B60C1
:101BFC007B6A01337B623B681A687B6A22FA03F3C7
:101C0C00002B7FF4AFAE00BF00BF2C37BD4680BCAD
:101C1C00704700BF0000321000003110000022108D
:101C2C0000002110000012100000111000100240E2
:101C3C000000014000080140000C01400010014070
:101C4C000004014080B485B000AF78600B467B8007
:101C5C007B689A687B881340002B02D00123FB73AE
:101C6C0001E00023FB73FB7B18461437BD4680BC98
:101C7C00704780B483B000AF78600B467B8013460E
:101C8C007B707B78002B03D07A887B681A6103E029
:101C9C007B881A047B681A6100BF0C37BD4680BC78
:101CAC00704780B485B000AF78600B467B807B6852
:101CBC00DB68FB607A88FB6813401A04FB68D94325
:101CCC007B880B401A437B681A6100BF1437BD46F2
:101CDC0080BC704780B586B000AF78607B68002B05
:101CEC0001D101236CE27B681B6803F00103002B1C
:101CFC0000F08780924B5B6803F00C03042B0CD034
:101D0C008F4B5B6803F00C03082B12D18C4B5B6878
:101D1C0003F48033B3F5803F0BD1894B1B6803F47C
:101D2C000033002B6CD07B685B68002B68D10123DF
:101D3C0046E27B685B68B3F5803F06D1804B1B683D
:101D4C007F4A43F4803313602EE07B685B68002B82
:101D5C000CD17B4B1B687A4A23F480331360784B8D
:101D6C001B68774A23F4802313601DE07B685B6853
:101D7C00B3F5A02F0CD1724B1B68714A43F480232E
:101D8C0013606F4B1B686E4A43F4803313600BE097
:101D9C006B4B1B686A4A23F480331360684B1B68D7
:101DAC00674A23F4802313607B685B68002B13D095
:101DBC00FFF7B6FC386108E0FFF7B2FC02463B695E
:101DCC00D31A642B01D90323FAE15D4B1B6803F48E
:101DDC000033002BF0D014E0FFF7A2FC386108E0D0
:101DEC00FFF79EFC02463B69D31A642B01D90323EF
:101DFC00E6E1534B1B6803F40033002BF0D100E0F9
:101E0C0000BF7B681B6803F00203002B63D04C4BB4
:101E1C005B6803F00C03002B0BD0494B5B6803F0A1
:101E2C000C03082B1CD1464B5B6803F48033002B4E
:101E3C0016D1434B1B6803F00203002B05D07B68C3
:101E4C001B69012B01D00123BAE13D4B1B6823F028
:101E5C00F8027B685B69DB00394913430B603AE09D
:101E6C007B681B69002B20D0364B01221A60FFF7D0
:101E7C0057FC386108E0FFF753FC02463B69D31A64
:101E8C00022B01D903239BE12D4B1B6803F00203AA
:101E9C00002BF0D02A4B1B6823F0F8027B685B699F
:101EAC00DB00274913430B6015E0264B00221A6018
:101EBC00FFF736FC386108E0FFF732FC02463B695D
:101ECC00D31A022B01D903237AE11D4B1B6803F0B3
:101EDC000203002BF0D17B681B6803F00803002B76
:101EEC003AD07B689B69002B19D0174B01221A60E2
:101EFC00FFF716FC386108E0FFF712FC02463B695D
:101F0C00D31A022B01D903235AE10D4B5B6A03F060
:101F1C000203002BF0D0012000F09AFA1CE00A4BCF
:101F2C0000221A60FFF7FCFB38610FE0FFF7F8FBAB
:101F3C0002463B69D31A022B08D9032340E100BFA8
:101F4C000010024000004242800442429E4B5B6AF9
:101F5C0003F00203002BE9D17B681B6803F0040338
:101F6C00002B00F0A6800023FB75974BDB6903F078
:101F7C008053002B0DD1944BDB69934A43F0805373
:101F8C00D361914BDB6903F08053BB60BB680123C9
:101F9C00FB758E4B1B6803F48073002B18D18B4B95
:101FAC001B688A4A43F480731360FFF7B9FB3861EE
:101FBC0008E0FFF7B5FB02463B69D31A642B01D945
:101FCC000323FDE0814B1B6803F48073002BF0D0DE
:101FDC007B68DB68012B06D17B4B1B6A7A4A43F08A
:101FEC00010313622DE07B68DB68002B0CD1764B70
:101FFC001B6A754A23F001031362734B1B6A724A06
:10200C0023F0040313621CE07B68DB68052B0CD106
:10201C006D4B1B6A6C4A43F0040313626A4B1B6AD8
:10202C00694A43F0010313620BE0674B1B6A664A73
:10203C0023F001031362644B1B6A634A23F004030D
:10204C0013627B68DB68002B15D0FFF769FB3861E6
:10205C000AE0FFF765FB02463B69D31A41F288326E
:10206C00934201D90323ABE0574B1B6A03F00203E5
:10207C00002BEED014E0FFF753FB38610AE0FFF7BA
:10208C004FFB02463B69D31A41F28832934201D985
:10209C00032395E04C4B1B6A03F00203002BEED19B
:1020AC00FB7D012B05D1484BDB69474A23F080535C
:1020BC00D3617B68DB69002B00F08180424B5B684D
:1020CC0003F00C03082B61D07B68DB69022B46D133
:1020DC003F4B00221A60FFF723FB386108E0FFF743
:1020EC001FFB02463B69D31A022B01D9032367E07D
:1020FC00354B1B6803F00073002BF0D17B681B6A17
:10210C00B3F5803F08D1304B5B6823F400327B6819
:10211C009B682D4913434B602B4B5B6823F4741263
:10212C007B68196A7B685B6A0B43274913434B60D6
:10213C00274B01221A60FFF7F3FA386108E0FFF72A
:10214C00EFFA02463B69D31A022B01D9032337E07D
:10215C001D4B1B6803F00073002BF0D02FE01C4BC1
:10216C0000221A60FFF7DCFA386108E0FFF7D8FAB2
:10217C0002463B69D31A022B01D9032320E0124BF0
:10218C001B6803F00073002BF0D118E07B68DB694F
:10219C00012B01D1012313E00B4B5B68FB60FB6847
:1021AC0003F480327B681B6A9A4206D1FB6803F405
:1021BC0070127B685B6A9A4201D0012300E0002315
:1021CC0018461837BD4680BD001002400070004014
:1021DC006000424280B584B000AF786039607B68A3
:1021EC00002B01D10123D0E06A4B1B6803F00703DD
:1021FC003A689A4210D9674B1B6823F0070265496D
:10220C003B6813430B60634B1B6803F007033A688E
:10221C009A4201D00123B8E07B681B6803F00203EB
:10222C00002B20D07B681B6803F00403002B05D027
:10223C00594B5B68584A43F4E06353607B681B68F6
:10224C0003F00803002B05D0534B5B68524A43F450
:10225C0060535360504B5B6823F0F0027B689B68C3
:10226C004D4913434B607B681B6803F00103002B43
:10227C0040D07B685B68012B07D1474B1B6803F48C
:10228C000033002B15D101237FE07B685B68022BA8
:10229C0007D1414B1B6803F00073002B09D10123BC
:1022AC0073E03D4B1B6803F00203002B01D10123AB
:1022BC006BE0394B5B6823F003027B685B68364943
:1022CC0013434B60FFF72CFAF8600AE0FFF728FA8B
:1022DC000246FB68D31A41F28832934201D9032398
:1022EC0053E02D4B5B6803F00C027B685B689B0032
:1022FC009A42EBD1274B1B6803F007033A689A42CA
:10230C0010D2244B1B6823F0070222493B6813436D
:10231C000B60204B1B6803F007033A689A4201D00C
:10232C00012332E07B681B6803F00403002B08D008
:10233C00194B5B6823F4E0627B68DB681649134336
:10234C004B607B681B6803F00803002B09D0124B11
:10235C005B6823F460527B681B69DB000E491343F6
:10236C004B6000F021F802460B4B5B681B0903F035
:10237C000F030A49CB5C22FA03F3094A1360094B99
:10238C001B681846FFF78AF9002318461037BD461C
:10239C0080BD00BF0020024000100240CC2C000881
:1023AC000C0000201000002080B487B000AF002388
:1023BC00FB600023BB6000237B6100237B60002358
:1023CC003B611E4B5B68FB60FB6803F00C03042B4A
:1023DC0002D0082B03D027E0194B3B6127E0FB68A8
:1023EC009B0C03F00F03174AD35C7B60FB6803F470
:1023FC008033002B10D0114B5B685B0C03F0010396
:10240C00114AD35CBB607B680D4A02FB03F2BB68CC
:10241C00B2FBF3F37B6104E07B680C4A02FB03F331
:10242C007B617B693B6102E0054B3B6100BF3B6913
:10243C0018461C37BD4680BC704700BF00100240D8
:10244C0000127A00DC2C0008EC2C000800093D007E
:10245C0080B485B000AF78600A4B1B680A4AA2FBB7
:10246C0003235B0A7A6802FB03F3FB6000BFFB6883
:10247C005A1EFA60002BF9D100BF00BF1437BD46BD
:10248C0080BC70470C000020D34D621080B582B028
:10249C0000AF78607B68002B01D1012341E07B68A1
:1024AC0093F83D30DBB2002B06D17B68002283F819
:1024BC003C207868FEF7CAFF7B68022283F83D2037
:1024CC007B681A687B6804331946104600F056FA8C
:1024DC007B68012283F846207B68012283F83E202A
:1024EC007B68012283F83F207B68012283F840201F
:1024FC007B68012283F841207B68012283F842200B
:10250C007B68012283F843207B68012283F84420F6
:10251C007B68012283F845207B68012283F83D20EB
:10252C00002318460837BD4680BD000080B485B036
:10253C0000AF78607B6893F83D30DBB2012B01D0A3
:10254C00012335E07B68022283F83D207B681B6801
:10255C00DA687B681B6842F00102DA607B681B68F2
:10256C00164A934209D07B681B68B3F1804F04D0A4
:10257C007B681B68124A934211D17B681B689B686D
:10258C0003F00703FB60FB68062B10D07B681B680D
:10259C001A687B681B6842F001021A6007E07B68CE
:1025AC001B681A687B681B6842F001021A600023E2
:1025BC0018461437BD4680BC704700BF002C014044
:1025CC000004004080B584B000AF78607B681B6865
:1025DC00DB68FB607B681B681B69BB60BB6803F036
:1025EC000203002B20D0FB6803F00203002B1BD04E
:1025FC007B681B686FF002021A617B6801221A77F4
:10260C007B681B689B6903F00303002B03D078687D
:10261C0000F098F905E0786800F08BF9786800F024
:10262C009AF97B6800221A77BB6803F00403002B2D
:10263C0020D0FB6803F00403002B1BD07B681B68C5
:10264C006FF004021A617B6802221A777B681B68A0
:10265C009B6903F44073002B03D0786800F072F987
:10266C0005E0786800F065F9786800F074F97B682B
:10267C0000221A77BB6803F00803002B20D0FB68FC
:10268C0003F00803002B1BD07B681B686FF008025B
:10269C001A617B6804221A777B681B68DB6903F07C
:1026AC000303002B03D0786800F04CF905E0786840
:1026BC0000F03FF9786800F04EF97B6800221A7739
:1026CC00BB6803F01003002B20D0FB6803F0100351
:1026DC00002B1BD07B681B686FF010021A617B68A3
:1026EC0008221A777B681B68DB6903F44073002BA4
:1026FC0003D0786800F026F905E0786800F019F945
:10270C00786800F028F97B6800221A77BB6803F020
:10271C000103002B0CD0FB6803F00103002B07D046
:10272C007B681B686FF001021A617868FEF780FC09
:10273C00BB6803F08003002B0CD0FB6803F0800314
:10274C00002B07D07B681B686FF080021A617868D9
:10275C0000F06FFABB6803F04003002B0CD0FB6851
:10276C0003F04003002B07D07B681B686FF040021E
:10277C001A61786800F0F8F8BB6803F02003002BAE
:10278C000CD0FB6803F02003002B07D07B681B6880
:10279C006FF020021A61786800F042FA00BF10371F
:1027AC00BD4680BD80B584B000AF78603960002331
:1027BC00FB737B6893F83C30012B01D10223B4E00E
:1027CC007B68012283F83C207B68022283F83D2041
:1027DC007B681B689B68BB60BB6823F07703BB609E
:1027EC00BB6823F47F43BB607B681B68BA689A6044
:1027FC003B681B68B3F5005F3ED0B3F5005F00F299
:10280C008780B3F5805F00F08680B3F5805F7FD85A
:10281C00702B1AD0702B7BD8602B50D0602B77D8B4
:10282C00502B3CD0502B73D8402B58D0402B6FD80A
:10283C00302B64D0302B6BD8202B60D0202B67D85A
:10284C00002B5CD0102B5AD062E07B6818683B6878
:10285C0099683B685A683B68DB6800F06AF97B68EA
:10286C001B689B68BB60BB6843F07703BB607B68ED
:10287C001B68BA689A604FE07B6818683B68996877
:10288C003B685A683B68DB6800F053F97B681B684F
:10289C009A687B681B6842F480429A603CE07B68D3
:1028AC0018683B6859683B68DB681A4600F0CAF840
:1028BC007B681B685021184600F021F92CE07B68DE
:1028CC0018683B6859683B68DB681A4600F0E8F802
:1028DC007B681B686021184600F011F91CE07B68CE
:1028EC0018683B6859683B68DB681A4600F0AAF820
:1028FC007B681B684021184600F001F90CE07B68EE
:10290C001A683B681B681946104600F0F8F803E09B
:10291C000123FB7300E000BF7B68012283F83D209C
:10292C007B68002283F83C20FB7B18461037BD46A1
:10293C0080BD80B483B000AF786000BF0C37BD465B
:10294C0080BC704780B483B000AF786000BF0C3798
:10295C00BD4680BC704780B483B000AF786000BFC8
:10296C000C37BD4680BC704780B483B000AF786034
:10297C0000BF0C37BD4680BC7047000080B485B0EA
:10298C0000AF786039607B681B68FB607B682B4A02
:10299C00934207D07B68B3F1804F03D07B68284A01
:1029AC00934208D1FB6823F07003FB603B685B68C3
:1029BC00FA681343FB607B68204A934207D07B681C
:1029CC00B3F1804F03D07B681D4A934208D1FB685A
:1029DC0023F44073FB603B68DB68FA681343FB60CD
:1029EC00FB6823F080023B685B691343FB607B68E8
:1029FC00FA681A603B689A687B68DA623B681A6806
:102A0C007B689A627B680D4A934203D13B681A69D2
:102A1C007B681A637B6801225A617B681B6903F02F
:102A2C000103002B05D07B681B6923F001027B6836
:102A3C001A6100BF1437BD4680BC7047002C0140A2
:102A4C000004004080B487B000AFF860B9607A60D1
:102A5C00FB681B6A7B61FB681B6A23F00102FB6845
:102A6C001A62FB689B693B613B6923F0F0033B6195
:102A7C007B681B013A6913433B617B6923F00A03B2
:102A8C007B617A69BB6813437B61FB683A699A6125
:102A9C00FB687A691A6200BF1C37BD4680BC704760
:102AAC0080B487B000AFF860B9607A60FB681B6ACD
:102ABC007B61FB681B6A23F01002FB681A62FB68DF
:102ACC009B693B613B6923F470433B617B681B034F
:102ADC003A6913433B617B6923F0A0037B61BB68BC
:102AEC001B017A6913437B61FB683A699A61FB6845
:102AFC007A691A6200BF1C37BD4680BC704780B42F
:102B0C0085B000AF786039607B689B68FB60FB68C0
:102B1C0023F07003FB603A68FB68134343F0070330
:102B2C00FB607B68FA689A6000BF1437BD4680BCB6
:102B3C00704780B487B000AFF860B9607A603B60D2
:102B4C00FB689B687B617B6923F47F437B613B68FB
:102B5C001A027B681A43BB6813437A6913437B617F
:102B6C00FB687A699A6000BF1C37BD4680BC704711
:102B7C0080B485B000AF786039607B6893F83C30E6
:102B8C00012B01D1022341E07B68012283F83C2018
:102B9C007B68022283F83D207B681B685B68FB60C6
:102BAC007B681B689B68BB60FB6823F07003FB6051
:102BBC003B681B68FA681343FB607B681B68FA6808
:102BCC005A607B681B68144A934209D07B681B6867
:102BDC00B3F1804F04D07B681B68104A93420CD130
:102BEC00BB6823F08003BB603B685B68BA68134327
:102BFC00BB607B681B68BA689A607B68012283F8AB
:102C0C003D207B68002283F83C20002318461437B3
:102C1C00BD4680BC704700BF002C01400004004042
:102C2C0080B483B000AF786000BF0C37BD4680BC69
:102C3C00704780B483B000AF786000BF0C37BD46DE
:102C4C0080BC704770B500260C4D0D4C641BA41055
:102C5C00A64209D100F022F800260A4D0A4C641B4A
:102C6C00A410A64205D170BD55F8043B9847013617
:102C7C00EEE755F8043B98470136F2E7F02C0008D4
:102C8C00F02C0008F02C0008F42C00080346024439
:102C9C00934200D1704703F8011BF9E7F8B500BF68
:102CAC00F8BC08BC9E467047F8B500BFF8BC08BC21
:042CBC009E46704779
:102CC0003F065B4F666D7D077F6F000000000000D0
:102CD00000000000010203040607080902030405BE
:102CE000060708090A0B0C0D0E0F10100102000058
:042CF00031010008A6
:042CF4000D010008C6
:102CF800F4010000F4010000F401000000127A0061
:082D08001000000001000000B2
:0400000508001631A8
:00000001FF
